{
  "address": "0x915c49218d3c7A5A9df7A3181f0B4AFe540030D2",
  "abi": [
    {
      "inputs": [
        {
          "internalType": "address",
          "name": "_owner",
          "type": "address"
        },
        {
          "internalType": "address",
          "name": "_tokenAddress",
          "type": "address"
        }
      ],
      "stateMutability": "nonpayable",
      "type": "constructor"
    },
    {
      "inputs": [],
      "name": "availableForClaiming",
      "outputs": [
        {
          "internalType": "uint256",
          "name": "",
          "type": "uint256"
        }
      ],
      "stateMutability": "view",
      "type": "function"
    },
    {
      "inputs": [
        {
          "internalType": "address",
          "name": "",
          "type": "address"
        }
      ],
      "name": "claimableBalance",
      "outputs": [
        {
          "internalType": "uint256",
          "name": "",
          "type": "uint256"
        }
      ],
      "stateMutability": "view",
      "type": "function"
    },
    {
      "inputs": [
        {
          "internalType": "address",
          "name": "user",
          "type": "address"
        }
      ],
      "name": "getBalance",
      "outputs": [
        {
          "internalType": "uint256",
          "name": "",
          "type": "uint256"
        }
      ],
      "stateMutability": "view",
      "type": "function"
    },
    {
      "inputs": [],
      "name": "getPoolBalance",
      "outputs": [
        {
          "internalType": "uint256",
          "name": "",
          "type": "uint256"
        }
      ],
      "stateMutability": "view",
      "type": "function"
    },
    {
      "inputs": [
        {
          "internalType": "address",
          "name": "userAddres",
          "type": "address"
        }
      ],
      "name": "getTokenBalanceOf",
      "outputs": [
        {
          "internalType": "uint256",
          "name": "",
          "type": "uint256"
        }
      ],
      "stateMutability": "view",
      "type": "function"
    },
    {
      "inputs": [],
      "name": "owner",
      "outputs": [
        {
          "internalType": "address",
          "name": "",
          "type": "address"
        }
      ],
      "stateMutability": "view",
      "type": "function"
    },
    {
      "inputs": [],
      "name": "token",
      "outputs": [
        {
          "internalType": "contract IERC20",
          "name": "",
          "type": "address"
        }
      ],
      "stateMutability": "view",
      "type": "function"
    },
    {
      "inputs": [
        {
          "internalType": "address",
          "name": "user",
          "type": "address"
        },
        {
          "internalType": "uint256",
          "name": "score",
          "type": "uint256"
        }
      ],
      "name": "updateBalance",
      "outputs": [],
      "stateMutability": "nonpayable",
      "type": "function"
    },
    {
      "inputs": [],
      "name": "withdraw",
      "outputs": [],
      "stateMutability": "nonpayable",
      "type": "function"
    },
    {
      "stateMutability": "payable",
      "type": "receive"
    }
  ],
  "transactionHash": "0x788fa7cea0194d373c6c2ae2067e82485e52a2056bc182f894997a3a61093b70",
  "args": [
    "0xdF79A13d5d6CCcA1D1a0e67Ecf1d1fB17658e80A",
    "0x840DD21CCa741AC62E3fD100b368A8193b3cE3f3"
  ],
  "numDeployments": 3,
  "solcInputHash": "c9b4402c64e8da6d22776b8c0860257c",
  "bytecode": "0x60c060405234801561001057600080fd5b5060405161088638038061088683398101604081905261002f916100ce565b6001600160a01b03828116608081905290821660a08190526040516370a0823160e01b81526004810192909252906370a0823190602401602060405180830381865afa158015610083573d6000803e3d6000fd5b505050506040513d601f19601f820116820180604052508101906100a79190610101565b6001555061011a9050565b80516001600160a01b03811681146100c957600080fd5b919050565b600080604083850312156100e157600080fd5b6100ea836100b2565b91506100f8602084016100b2565b90509250929050565b60006020828403121561011357600080fd5b5051919050565b60805160a05161071d610169600039600081816101ec01528181610325015281816103e60152610478015260008181610135015281816102ed015281816103be01526104f6015261071d6000f3fe60806040526004361061008a5760003560e01c80638da5cb5b116100595780638da5cb5b14610123578063abd70aa21461016f578063e0b1cccb14610184578063f8b2cb4f146101a4578063fc0c546a146101da57600080fd5b8063060acbdd146100965780633ccfd60b146100bf57806360f3309b146100d6578063838945481461010357600080fd5b3661009157005b600080fd5b3480156100a257600080fd5b506100ac60015481565b6040519081526020015b60405180910390f35b3480156100cb57600080fd5b506100d461020e565b005b3480156100e257600080fd5b506100ac6100f1366004610620565b60006020819052908152604090205481565b34801561010f57600080fd5b506100ac61011e366004610620565b610456565b34801561012f57600080fd5b506101577f000000000000000000000000000000000000000000000000000000000000000081565b6040516001600160a01b0390911681526020016100b6565b34801561017b57600080fd5b506001546100ac565b34801561019057600080fd5b506100d461019f366004610642565b6104eb565b3480156101b057600080fd5b506100ac6101bf366004610620565b6001600160a01b031660009081526020819052604090205490565b3480156101e657600080fd5b506101577f000000000000000000000000000000000000000000000000000000000000000081565b336000908152602081905260409020546102645760405162461bcd60e51b8152602060048201526012602482015271155cd95c88111bd95cdb9bdd08195e1a5cdd60721b60448201526064015b60405180910390fd5b3360009081526020819052604090205460015410156102c55760405162461bcd60e51b815260206004820152601d60248201527f706f6f6c20697320656d7074792074727920616761696e206c61746572000000604482015260640161025b565b33600081815260208190526040908190205490516323b872dd60e01b81526001600160a01b037f000000000000000000000000000000000000000000000000000000000000000081166004830152602482019390935260448101919091527f0000000000000000000000000000000000000000000000000000000000000000909116906323b872dd906064016020604051808303816000875af1158015610370573d6000803e3d6000fd5b505050506040513d601f19601f82011682018060405250810190610394919061066c565b503360009081526020819052604080822091909155516370a0823160e01b81526001600160a01b037f0000000000000000000000000000000000000000000000000000000000000000811660048301527f000000000000000000000000000000000000000000000000000000000000000016906370a0823190602401602060405180830381865afa15801561042d573d6000803e3d6000fd5b505050506040513d601f19601f82011682018060405250810190610451919061068e565b600155565b6040516370a0823160e01b81526001600160a01b0382811660048301526000917f0000000000000000000000000000000000000000000000000000000000000000909116906370a0823190602401602060405180830381865afa1580156104c1573d6000803e3d6000fd5b505050506040513d601f19601f820116820180604052508101906104e5919061068e565b92915050565b336001600160a01b037f000000000000000000000000000000000000000000000000000000000000000016146105535760405162461bcd60e51b815260206004820152600d60248201526c2737ba103a34329027bbb732b960991b604482015260640161025b565b6000811180156105635750600b81105b61059f5760405162461bcd60e51b815260206004820152600d60248201526c496e76616c69642073636f726560981b604482015260640161025b565b6001600160a01b038216600090815260208190526040812054906105c483600a6106bd565b6105d690670de0b6b3a76400006106bd565b90506105e281836106d4565b6001600160a01b03909416600090815260208190526040902093909355505050565b80356001600160a01b038116811461061b57600080fd5b919050565b60006020828403121561063257600080fd5b61063b82610604565b9392505050565b6000806040838503121561065557600080fd5b61065e83610604565b946020939093013593505050565b60006020828403121561067e57600080fd5b8151801515811461063b57600080fd5b6000602082840312156106a057600080fd5b5051919050565b634e487b7160e01b600052601160045260246000fd5b80820281158282048414176104e5576104e56106a7565b808201808211156104e5576104e56106a756fea26469706673582212200dee0048fe74984bcd3b3c537d3576de259937dee3e8daf1abee726e95e3949464736f6c63430008110033",
  "devdoc": {
    "kind": "dev",
    "methods": {},
    "version": 1
  },
  "userdoc": {
    "kind": "user",
    "methods": {},
    "version": 1
  },
  "storageLayout": {
    "storage": [
      {
        "astId": 30,
        "contract": "contracts/devDockRewardDistributionContract.sol:devDockRewardDistribution",
        "label": "claimableBalance",
        "offset": 0,
        "slot": "0",
        "type": "t_mapping(t_address,t_uint256)"
      },
      {
        "astId": 32,
        "contract": "contracts/devDockRewardDistributionContract.sol:devDockRewardDistribution",
        "label": "availableForClaiming",
        "offset": 0,
        "slot": "1",
        "type": "t_uint256"
      }
    ],
    "types": {
      "t_address": {
        "encoding": "inplace",
        "label": "address",
        "numberOfBytes": "20"
      },
      "t_mapping(t_address,t_uint256)": {
        "encoding": "mapping",
        "key": "t_address",
        "label": "mapping(address => uint256)",
        "numberOfBytes": "32",
        "value": "t_uint256"
      },
      "t_uint256": {
        "encoding": "inplace",
        "label": "uint256",
        "numberOfBytes": "32"
      }
    }
  }
}