{
  "address": "0x55d69Ba92f80f5D9f6583Fd534bA0678154ACd55",
  "abi": [
    {
      "inputs": [
        {
          "internalType": "address",
          "name": "_owner",
          "type": "address"
        },
        {
          "internalType": "address",
          "name": "_tokenAddress",
          "type": "address"
        }
      ],
      "stateMutability": "nonpayable",
      "type": "constructor"
    },
    {
      "inputs": [],
      "name": "availableForClaiming",
      "outputs": [
        {
          "internalType": "uint256",
          "name": "",
          "type": "uint256"
        }
      ],
      "stateMutability": "view",
      "type": "function"
    },
    {
      "inputs": [
        {
          "internalType": "address",
          "name": "",
          "type": "address"
        }
      ],
      "name": "claimableBalance",
      "outputs": [
        {
          "internalType": "uint256",
          "name": "",
          "type": "uint256"
        }
      ],
      "stateMutability": "view",
      "type": "function"
    },
    {
      "inputs": [
        {
          "internalType": "address",
          "name": "user",
          "type": "address"
        }
      ],
      "name": "getBalance",
      "outputs": [
        {
          "internalType": "uint256",
          "name": "",
          "type": "uint256"
        }
      ],
      "stateMutability": "view",
      "type": "function"
    },
    {
      "inputs": [],
      "name": "getPoolBalance",
      "outputs": [
        {
          "internalType": "uint256",
          "name": "",
          "type": "uint256"
        }
      ],
      "stateMutability": "view",
      "type": "function"
    },
    {
      "inputs": [
        {
          "internalType": "address",
          "name": "userAddres",
          "type": "address"
        }
      ],
      "name": "getTokenBalanceOf",
      "outputs": [
        {
          "internalType": "uint256",
          "name": "",
          "type": "uint256"
        }
      ],
      "stateMutability": "view",
      "type": "function"
    },
    {
      "inputs": [],
      "name": "owner",
      "outputs": [
        {
          "internalType": "address",
          "name": "",
          "type": "address"
        }
      ],
      "stateMutability": "view",
      "type": "function"
    },
    {
      "inputs": [],
      "name": "token",
      "outputs": [
        {
          "internalType": "contract IERC20",
          "name": "",
          "type": "address"
        }
      ],
      "stateMutability": "view",
      "type": "function"
    },
    {
      "inputs": [
        {
          "internalType": "address",
          "name": "user",
          "type": "address"
        },
        {
          "internalType": "uint256",
          "name": "score",
          "type": "uint256"
        }
      ],
      "name": "updateBalance",
      "outputs": [],
      "stateMutability": "nonpayable",
      "type": "function"
    },
    {
      "inputs": [
        {
          "internalType": "uint256",
          "name": "claimAmount",
          "type": "uint256"
        }
      ],
      "name": "withdraw",
      "outputs": [],
      "stateMutability": "nonpayable",
      "type": "function"
    },
    {
      "stateMutability": "payable",
      "type": "receive"
    }
  ],
  "transactionHash": "0x0accf741002cd2c93f647418cf9b869b4df6362cb3b9869bba36615760cae4ab",
  "args": [
    "0xdF79A13d5d6CCcA1D1a0e67Ecf1d1fB17658e80A",
    "0x378883c3CB137f18a1d3Fc32385cd76f952139E3"
  ],
  "numDeployments": 1,
  "solcInputHash": "3fa767c19111893c9709772315e5e151",
  "bytecode": "0x60c060405234801561001057600080fd5b5060405161090b38038061090b83398101604081905261002f916100ce565b6001600160a01b03828116608081905290821660a08190526040516370a0823160e01b81526004810192909252906370a0823190602401602060405180830381865afa158015610083573d6000803e3d6000fd5b505050506040513d601f19601f820116820180604052508101906100a79190610101565b6001555061011a9050565b80516001600160a01b03811681146100c957600080fd5b919050565b600080604083850312156100e157600080fd5b6100ea836100b2565b91506100f8602084016100b2565b90509250929050565b60006020828403121561011357600080fd5b5051919050565b60805160a0516107a2610169600039600081816101f7015281816103630152818161043e01526104d10152600081816101400152818161032e01528181610416015261054f01526107a26000f3fe60806040526004361061008a5760003560e01c80638da5cb5b116100595780638da5cb5b1461012e578063abd70aa21461017a578063e0b1cccb1461018f578063f8b2cb4f146101af578063fc0c546a146101e557600080fd5b8063060acbdd146100965780632e1a7d4d146100bf57806360f3309b146100e1578063838945481461010e57600080fd5b3661009157005b600080fd5b3480156100a257600080fd5b506100ac60015481565b6040519081526020015b60405180910390f35b3480156100cb57600080fd5b506100df6100da36600461065d565b610219565b005b3480156100ed57600080fd5b506100ac6100fc366004610692565b60006020819052908152604090205481565b34801561011a57600080fd5b506100ac610129366004610692565b6104af565b34801561013a57600080fd5b506101627f000000000000000000000000000000000000000000000000000000000000000081565b6040516001600160a01b0390911681526020016100b6565b34801561018657600080fd5b506001546100ac565b34801561019b57600080fd5b506100df6101aa3660046106b4565b610544565b3480156101bb57600080fd5b506100ac6101ca366004610692565b6001600160a01b031660009081526020819052604090205490565b3480156101f157600080fd5b506101627f000000000000000000000000000000000000000000000000000000000000000081565b3360009081526020819052604090205461026f5760405162461bcd60e51b8152602060048201526012602482015271155cd95c88111bd95cdb9bdd08195e1a5cdd60721b60448201526064015b60405180910390fd5b336000908152602081905260409020548111156102c55760405162461bcd60e51b8152602060048201526014602482015273125b9d985b1a590818db185a5b48185b5bdd5b9d60621b6044820152606401610266565b8060015410156103175760405162461bcd60e51b815260206004820152601d60248201527f706f6f6c20697320656d7074792074727920616761696e206c617465720000006044820152606401610266565b6040516323b872dd60e01b81526001600160a01b037f000000000000000000000000000000000000000000000000000000000000000081166004830152336024830152604482018390527f000000000000000000000000000000000000000000000000000000000000000016906323b872dd906064016020604051808303816000875af11580156103ac573d6000803e3d6000fd5b505050506040513d601f19601f820116820180604052508101906103d091906106de565b50336000908152602081905260409020546103ec908290610716565b336000908152602081905260409081902091909155516370a0823160e01b81526001600160a01b037f0000000000000000000000000000000000000000000000000000000000000000811660048301527f000000000000000000000000000000000000000000000000000000000000000016906370a0823190602401602060405180830381865afa158015610485573d6000803e3d6000fd5b505050506040513d601f19601f820116820180604052508101906104a99190610729565b60015550565b6040516370a0823160e01b81526001600160a01b0382811660048301526000917f0000000000000000000000000000000000000000000000000000000000000000909116906370a0823190602401602060405180830381865afa15801561051a573d6000803e3d6000fd5b505050506040513d601f19601f8201168201806040525081019061053e9190610729565b92915050565b336001600160a01b037f000000000000000000000000000000000000000000000000000000000000000016146105ac5760405162461bcd60e51b815260206004820152600d60248201526c2737ba103a34329027bbb732b960991b6044820152606401610266565b6000811180156105bc5750600b81105b6105f85760405162461bcd60e51b815260206004820152600d60248201526c496e76616c69642073636f726560981b6044820152606401610266565b6001600160a01b0382166000908152602081905260408120549061061d83600a610742565b61062f90670de0b6b3a7640000610742565b905061063b8183610759565b6001600160a01b03909416600090815260208190526040902093909355505050565b60006020828403121561066f57600080fd5b5035919050565b80356001600160a01b038116811461068d57600080fd5b919050565b6000602082840312156106a457600080fd5b6106ad82610676565b9392505050565b600080604083850312156106c757600080fd5b6106d083610676565b946020939093013593505050565b6000602082840312156106f057600080fd5b815180151581146106ad57600080fd5b634e487b7160e01b600052601160045260246000fd5b8181038181111561053e5761053e610700565b60006020828403121561073b57600080fd5b5051919050565b808202811582820484141761053e5761053e610700565b8082018082111561053e5761053e61070056fea26469706673582212209d0352a00dfa257ccd1ce2ea40c33018e9a94a1a576b7f8c767d5509b0637f3264736f6c63430008110033",
  "devdoc": {
    "kind": "dev",
    "methods": {},
    "version": 1
  },
  "userdoc": {
    "kind": "user",
    "methods": {},
    "version": 1
  },
  "storageLayout": {
    "storage": [
      {
        "astId": 30,
        "contract": "contracts/devDockRewardDistributionContract.sol:devDockRewardDistribution",
        "label": "claimableBalance",
        "offset": 0,
        "slot": "0",
        "type": "t_mapping(t_address,t_uint256)"
      },
      {
        "astId": 32,
        "contract": "contracts/devDockRewardDistributionContract.sol:devDockRewardDistribution",
        "label": "availableForClaiming",
        "offset": 0,
        "slot": "1",
        "type": "t_uint256"
      }
    ],
    "types": {
      "t_address": {
        "encoding": "inplace",
        "label": "address",
        "numberOfBytes": "20"
      },
      "t_mapping(t_address,t_uint256)": {
        "encoding": "mapping",
        "key": "t_address",
        "label": "mapping(address => uint256)",
        "numberOfBytes": "32",
        "value": "t_uint256"
      },
      "t_uint256": {
        "encoding": "inplace",
        "label": "uint256",
        "numberOfBytes": "32"
      }
    }
  }
}